{
  "contractName": "Bank",
  "abi": [
    {
      "inputs": [],
      "stateMutability": "nonpayable",
      "type": "constructor"
    },
    {
      "inputs": [],
      "name": "admin",
      "outputs": [
        {
          "internalType": "address",
          "name": "",
          "type": "address"
        }
      ],
      "stateMutability": "view",
      "type": "function"
    },
    {
      "inputs": [
        {
          "internalType": "address",
          "name": "",
          "type": "address"
        }
      ],
      "name": "userAccounts",
      "outputs": [
        {
          "internalType": "uint256",
          "name": "balance",
          "type": "uint256"
        },
        {
          "internalType": "bool",
          "name": "part_in",
          "type": "bool"
        }
      ],
      "stateMutability": "view",
      "type": "function"
    },
    {
      "inputs": [],
      "name": "response",
      "outputs": [
        {
          "internalType": "string",
          "name": "",
          "type": "string"
        }
      ],
      "stateMutability": "pure",
      "type": "function"
    },
    {
      "inputs": [],
      "name": "getbalance",
      "outputs": [
        {
          "internalType": "uint256",
          "name": "",
          "type": "uint256"
        }
      ],
      "stateMutability": "view",
      "type": "function"
    },
    {
      "inputs": [],
      "name": "deposit",
      "outputs": [],
      "stateMutability": "payable",
      "type": "function"
    },
    {
      "inputs": [
        {
          "internalType": "uint256",
          "name": "amount",
          "type": "uint256"
        }
      ],
      "name": "withdraw",
      "outputs": [],
      "stateMutability": "payable",
      "type": "function"
    }
  ],
  "bytecode": "0x608060405234801561001057600080fd5b50336000806101000a81548173ffffffffffffffffffffffffffffffffffffffff021916908373ffffffffffffffffffffffffffffffffffffffff1602179055506108ba806100606000396000f3fe6080604052600436106100555760003560e01c80632e1a7d4d1461005a5780634d9b3d5d146100765780635251d91c146100a15780637a7f01a7146100df578063d0e30db01461010a578063f851a44014610114575b600080fd5b610074600480360381019061006f9190610513565b61013f565b005b34801561008257600080fd5b5061008b610267565b604051610098919061054f565b60405180910390f35b3480156100ad57600080fd5b506100c860048036038101906100c391906105c8565b6102b1565b6040516100d6929190610610565b60405180910390f35b3480156100eb57600080fd5b506100f46102e2565b60405161010191906106c9565b60405180910390f35b61011261031f565b005b34801561012057600080fd5b506101296104b4565b60405161013691906106fa565b60405180910390f35b80600160003273ffffffffffffffffffffffffffffffffffffffff1673ffffffffffffffffffffffffffffffffffffffff1681526020019081526020016000206000015410156101c4576040517f08c379a00000000000000000000000000000000000000000000000000000000081526004016101bb90610761565b60405180910390fd5b3273ffffffffffffffffffffffffffffffffffffffff166108fc829081150290604051600060405180830381858888f1935050505015801561020a573d6000803e3d6000fd5b5080600160003273ffffffffffffffffffffffffffffffffffffffff1673ffffffffffffffffffffffffffffffffffffffff168152602001908152602001600020600001600082825461025d91906107b0565b9250508190555050565b6000600160003273ffffffffffffffffffffffffffffffffffffffff1673ffffffffffffffffffffffffffffffffffffffff16815260200190815260200160002060000154905090565b60016020528060005260406000206000915090508060000154908060010160009054906101000a900460ff16905082565b60606040518060400160405280600581526020017f68656c6c6f000000000000000000000000000000000000000000000000000000815250905090565b600160003273ffffffffffffffffffffffffffffffffffffffff1673ffffffffffffffffffffffffffffffffffffffff16815260200190815260200160002060010160009054906101000a900460ff16156103af576040517f08c379a00000000000000000000000000000000000000000000000000000000081526004016103a690610830565b60405180910390fd5b34600160003273ffffffffffffffffffffffffffffffffffffffff1673ffffffffffffffffffffffffffffffffffffffff16815260200190815260200160002060000160008282546104019190610850565b92505081905550600160003273ffffffffffffffffffffffffffffffffffffffff1673ffffffffffffffffffffffffffffffffffffffff16815260200190815260200160002060010160009054906101000a900460ff1615600160003273ffffffffffffffffffffffffffffffffffffffff1673ffffffffffffffffffffffffffffffffffffffff16815260200190815260200160002060010160006101000a81548160ff021916908315150217905550565b60008054906101000a900473ffffffffffffffffffffffffffffffffffffffff1681565b600080fd5b6000819050919050565b6104f0816104dd565b81146104fb57600080fd5b50565b60008135905061050d816104e7565b92915050565b600060208284031215610529576105286104d8565b5b6000610537848285016104fe565b91505092915050565b610549816104dd565b82525050565b60006020820190506105646000830184610540565b92915050565b600073ffffffffffffffffffffffffffffffffffffffff82169050919050565b60006105958261056a565b9050919050565b6105a58161058a565b81146105b057600080fd5b50565b6000813590506105c28161059c565b92915050565b6000602082840312156105de576105dd6104d8565b5b60006105ec848285016105b3565b91505092915050565b60008115159050919050565b61060a816105f5565b82525050565b60006040820190506106256000830185610540565b6106326020830184610601565b9392505050565b600081519050919050565b600082825260208201905092915050565b60005b83811015610673578082015181840152602081019050610658565b60008484015250505050565b6000601f19601f8301169050919050565b600061069b82610639565b6106a58185610644565b93506106b5818560208601610655565b6106be8161067f565b840191505092915050565b600060208201905081810360008301526106e38184610690565b905092915050565b6106f48161058a565b82525050565b600060208201905061070f60008301846106eb565b92915050565b7f6e6f7420656e6f75676874206d6f6e6579000000000000000000000000000000600082015250565b600061074b601183610644565b915061075682610715565b602082019050919050565b6000602082019050818103600083015261077a8161073e565b9050919050565b7f4e487b7100000000000000000000000000000000000000000000000000000000600052601160045260246000fd5b60006107bb826104dd565b91506107c6836104dd565b92508282039050818111156107de576107dd610781565b5b92915050565b7f63616e206f6e6c7920696e746572657374206f6e636500000000000000000000600082015250565b600061081a601683610644565b9150610825826107e4565b602082019050919050565b600060208201905081810360008301526108498161080d565b9050919050565b600061085b826104dd565b9150610866836104dd565b925082820190508082111561087e5761087d610781565b5b9291505056fea26469706673582212204c9ec4559e61ca77e085af926d0248b1311d5af76b7268e50e7bb021221fa57464736f6c63430008110033",
  "immutableReferences": {},
  "source": "// SPDX-License-Identifier: MIT\r\npragma solidity ^0.8.0;\r\n\r\ncontract Bank {\r\n    address public admin;\r\n\r\n    mapping(address => storageUnit) public userAccounts;\r\n    struct storageUnit {\r\n        uint256 balance;\r\n        bool part_in;\r\n    }\r\n\r\n    constructor() {\r\n        admin = msg.sender;\r\n    }\r\n\r\n    function response() external pure returns (string memory) {\r\n        return \"hello\";\r\n    }\r\n\r\n    function getbalance() external view returns (uint256) {\r\n        return userAccounts[tx.origin].balance;\r\n    }\r\n\r\n    function deposit() public payable {\r\n        if (userAccounts[tx.origin].part_in) revert(\"can only interest once\");\r\n        userAccounts[tx.origin].balance += msg.value;\r\n        userAccounts[tx.origin].part_in = !userAccounts[tx.origin].part_in;\r\n    }\r\n\r\n    function withdraw(uint256 amount) public payable {\r\n        if (userAccounts[tx.origin].balance < amount)\r\n            revert(\"not enought money\");\r\n        payable(tx.origin).transfer(amount);\r\n        userAccounts[tx.origin].balance -= amount;\r\n    }\r\n}\r\n",
  "sourcePath": "C:\\Users\\user01\\\\BlockChain\\BCMonopoly\\contracts\\Bank.sol",
  "compiler": {
    "name": "solc",
    "version": "0.8.17+commit.8df45f5f.Emscripten.clang"
  },
  "schemaVersion": "3.4.11",
  "updatedAt": "2023-01-10T12:32:39.137Z",
  "devdoc": {
    "kind": "dev",
    "methods": {},
    "version": 1
  },
  "userdoc": {
    "kind": "user",
    "methods": {},
    "version": 1
  }
}