{
  "contractName": "Bank",
  "abi": [
    {
      "inputs": [],
      "stateMutability": "nonpayable",
      "type": "constructor"
    },
    {
      "inputs": [],
      "name": "admin",
      "outputs": [
        {
          "internalType": "address",
          "name": "",
          "type": "address"
        }
      ],
      "stateMutability": "view",
      "type": "function",
      "constant": true
    },
    {
      "inputs": [
        {
          "internalType": "address",
          "name": "",
          "type": "address"
        }
      ],
      "name": "userAccounts",
      "outputs": [
        {
          "internalType": "uint256",
          "name": "balance",
          "type": "uint256"
        },
        {
          "internalType": "bool",
          "name": "part_in",
          "type": "bool"
        }
      ],
      "stateMutability": "view",
      "type": "function",
      "constant": true
    },
    {
      "inputs": [],
      "name": "getbalance",
      "outputs": [
        {
          "internalType": "uint256",
          "name": "",
          "type": "uint256"
        }
      ],
      "stateMutability": "view",
      "type": "function",
      "constant": true
    },
    {
      "inputs": [],
      "name": "deposit",
      "outputs": [],
      "stateMutability": "payable",
      "type": "function",
      "payable": true
    },
    {
      "inputs": [
        {
          "internalType": "uint256",
          "name": "amount",
          "type": "uint256"
        }
      ],
      "name": "withdraw",
      "outputs": [],
      "stateMutability": "payable",
      "type": "function",
      "payable": true
    }
  ],
  "bytecode": "0x608060405234801561001057600080fd5b50336000806101000a81548173ffffffffffffffffffffffffffffffffffffffff021916908373ffffffffffffffffffffffffffffffffffffffff1602179055506107a6806100606000396000f3fe60806040526004361061004a5760003560e01c80632e1a7d4d1461004f5780634d9b3d5d1461006b5780635251d91c14610096578063d0e30db0146100d4578063f851a440146100de575b600080fd5b610069600480360381019061006491906104a0565b610109565b005b34801561007757600080fd5b50610080610231565b60405161008d91906104dc565b60405180910390f35b3480156100a257600080fd5b506100bd60048036038101906100b89190610555565b61027b565b6040516100cb92919061059d565b60405180910390f35b6100dc6102ac565b005b3480156100ea57600080fd5b506100f3610441565b60405161010091906105d5565b60405180910390f35b80600160003373ffffffffffffffffffffffffffffffffffffffff1673ffffffffffffffffffffffffffffffffffffffff16815260200190815260200160002060000154101561018e576040517f08c379a00000000000000000000000000000000000000000000000000000000081526004016101859061064d565b60405180910390fd5b3373ffffffffffffffffffffffffffffffffffffffff166108fc829081150290604051600060405180830381858888f193505050501580156101d4573d6000803e3d6000fd5b5080600160003373ffffffffffffffffffffffffffffffffffffffff1673ffffffffffffffffffffffffffffffffffffffff1681526020019081526020016000206000016000828254610227919061069c565b9250508190555050565b6000600160003373ffffffffffffffffffffffffffffffffffffffff1673ffffffffffffffffffffffffffffffffffffffff16815260200190815260200160002060000154905090565b60016020528060005260406000206000915090508060000154908060010160009054906101000a900460ff16905082565b600160003373ffffffffffffffffffffffffffffffffffffffff1673ffffffffffffffffffffffffffffffffffffffff16815260200190815260200160002060010160009054906101000a900460ff161561033c576040517f08c379a00000000000000000000000000000000000000000000000000000000081526004016103339061071c565b60405180910390fd5b34600160003373ffffffffffffffffffffffffffffffffffffffff1673ffffffffffffffffffffffffffffffffffffffff168152602001908152602001600020600001600082825461038e919061073c565b92505081905550600160003373ffffffffffffffffffffffffffffffffffffffff1673ffffffffffffffffffffffffffffffffffffffff16815260200190815260200160002060010160009054906101000a900460ff1615600160003373ffffffffffffffffffffffffffffffffffffffff1673ffffffffffffffffffffffffffffffffffffffff16815260200190815260200160002060010160006101000a81548160ff021916908315150217905550565b60008054906101000a900473ffffffffffffffffffffffffffffffffffffffff1681565b600080fd5b6000819050919050565b61047d8161046a565b811461048857600080fd5b50565b60008135905061049a81610474565b92915050565b6000602082840312156104b6576104b5610465565b5b60006104c48482850161048b565b91505092915050565b6104d68161046a565b82525050565b60006020820190506104f160008301846104cd565b92915050565b600073ffffffffffffffffffffffffffffffffffffffff82169050919050565b6000610522826104f7565b9050919050565b61053281610517565b811461053d57600080fd5b50565b60008135905061054f81610529565b92915050565b60006020828403121561056b5761056a610465565b5b600061057984828501610540565b91505092915050565b60008115159050919050565b61059781610582565b82525050565b60006040820190506105b260008301856104cd565b6105bf602083018461058e565b9392505050565b6105cf81610517565b82525050565b60006020820190506105ea60008301846105c6565b92915050565b600082825260208201905092915050565b7f6e6f7420656e6f75676874206d6f6e6579000000000000000000000000000000600082015250565b60006106376011836105f0565b915061064282610601565b602082019050919050565b600060208201905081810360008301526106668161062a565b9050919050565b7f4e487b7100000000000000000000000000000000000000000000000000000000600052601160045260246000fd5b60006106a78261046a565b91506106b28361046a565b92508282039050818111156106ca576106c961066d565b5b92915050565b7f63616e206f6e6c7920696e746572657374206f6e636500000000000000000000600082015250565b60006107066016836105f0565b9150610711826106d0565b602082019050919050565b60006020820190508181036000830152610735816106f9565b9050919050565b60006107478261046a565b91506107528361046a565b925082820190508082111561076a5761076961066d565b5b9291505056fea2646970667358221220128d6fe1b5efd74dd0934354a9898bedd8bdd096d251eb475e1453819f2acafb64736f6c63430008110033",
  "immutableReferences": {},
  "source": "// SPDX-License-Identifier: MIT\r\npragma solidity ^0.8.0;\r\n\r\ncontract Bank {\r\n    address public admin;\r\n    mapping(address => storageUnit) public userAccounts;\r\n    struct storageUnit {\r\n        uint256 balance;\r\n        bool part_in;\r\n    }\r\n\r\n    constructor() {\r\n        admin = msg.sender;\r\n    }\r\n\r\n    function getbalance() external view returns (uint256) {\r\n        return userAccounts[msg.sender].balance;\r\n    }\r\n\r\n    function deposit() public payable {\r\n        if (userAccounts[msg.sender].part_in) revert(\"can only interest once\");\r\n        userAccounts[msg.sender].balance += msg.value;\r\n        userAccounts[msg.sender].part_in = !userAccounts[msg.sender].part_in;\r\n    }\r\n\r\n    function withdraw(uint256 amount) public payable {\r\n        if (userAccounts[msg.sender].balance < amount)\r\n            revert(\"not enought money\");\r\n        payable(msg.sender).transfer(amount);\r\n        userAccounts[msg.sender].balance -= amount;\r\n    }\r\n}\r\n",
  "sourcePath": "C:\\Users\\user01\\\\BlockChain\\BCMonopoly\\contracts\\Bank.sol",
  "compiler": {
    "name": "solc",
    "version": "0.8.17+commit.8df45f5f.Emscripten.clang"
  },
  "schemaVersion": "3.4.11",
  "updatedAt": "2023-01-05T14:13:18.303Z",
  "networkType": "ethereum",
  "devdoc": {
    "kind": "dev",
    "methods": {},
    "version": 1
  },
  "userdoc": {
    "kind": "user",
    "methods": {},
    "version": 1
  }
}