{
  "contractName": "HelperFunction",
  "abi": [
    {
      "inputs": [],
      "name": "random",
      "outputs": [],
      "stateMutability": "nonpayable",
      "type": "function"
    },
    {
      "inputs": [],
      "name": "getseed",
      "outputs": [
        {
          "internalType": "uint256",
          "name": "",
          "type": "uint256"
        }
      ],
      "stateMutability": "view",
      "type": "function",
      "constant": true
    }
  ],
  "bytecode": "0x60806040526000805534801561001457600080fd5b506102db806100246000396000f3fe608060405234801561001057600080fd5b50600436106100365760003560e01c806306b88d151461003b5780635ec01e4d14610059575b600080fd5b610043610063565b60405161005091906100ef565b60405180910390f35b61006161006c565b005b60008054905090565b3342600054604051602001610083939291906101a5565b6040516020818303038152906040528051906020012060001c60008190555060056000808282546100b49190610211565b9250508190555060016000808282546100cd9190610271565b92505081905550565b6000819050919050565b6100e9816100d6565b82525050565b600060208201905061010460008301846100e0565b92915050565b600073ffffffffffffffffffffffffffffffffffffffff82169050919050565b60006101358261010a565b9050919050565b60008160601b9050919050565b60006101548261013c565b9050919050565b600061016682610149565b9050919050565b61017e6101798261012a565b61015b565b82525050565b6000819050919050565b61019f61019a826100d6565b610184565b82525050565b60006101b1828661016d565b6014820191506101c1828561018e565b6020820191506101d1828461018e565b602082019150819050949350505050565b7f4e487b7100000000000000000000000000000000000000000000000000000000600052601260045260246000fd5b600061021c826100d6565b9150610227836100d6565b925082610237576102366101e2565b5b828206905092915050565b7f4e487b7100000000000000000000000000000000000000000000000000000000600052601160045260246000fd5b600061027c826100d6565b9150610287836100d6565b925082820190508082111561029f5761029e610242565b5b9291505056fea2646970667358221220e52da533f05b87272b9e496a0adf92bdaac59087feb6da4c63d19dcd7aa6128064736f6c63430008110033",
  "immutableReferences": {},
  "source": "// SPDX-License-Identifier: MIT\r\npragma solidity ^0.8.0;\r\n\r\ncontract HelperFunction {\r\n    uint256 seed = 0;\r\n\r\n    function random() external {\r\n        seed = uint256(\r\n            keccak256(abi.encodePacked(msg.sender, block.timestamp, seed))\r\n        );\r\n        seed %= 5;\r\n        seed += 1;\r\n        // return seed;\r\n    }\r\n\r\n    function getseed() external view returns (uint256) {\r\n        return seed;\r\n    }\r\n\r\n    function copy() internal pure returns (uint256) {\r\n        return 1;\r\n    }\r\n}\r\n",
  "sourcePath": "C:\\Users\\user01\\\\BlockChain\\BCMonopoly\\contracts\\HelperFunction.sol",
  "compiler": {
    "name": "solc",
    "version": "0.8.17+commit.8df45f5f.Emscripten.clang"
  },
  "schemaVersion": "3.4.11",
  "updatedAt": "2023-01-05T14:13:18.299Z",
  "networkType": "ethereum",
  "devdoc": {
    "kind": "dev",
    "methods": {},
    "version": 1
  },
  "userdoc": {
    "kind": "user",
    "methods": {},
    "version": 1
  }
}