{
  "contractName": "MainContract",
  "abi": [
    {
      "inputs": [],
      "stateMutability": "nonpayable",
      "type": "constructor"
    },
    {
      "stateMutability": "payable",
      "type": "fallback",
      "payable": true
    },
    {
      "inputs": [],
      "name": "admin",
      "outputs": [
        {
          "internalType": "address",
          "name": "",
          "type": "address"
        }
      ],
      "stateMutability": "view",
      "type": "function",
      "constant": true
    },
    {
      "inputs": [
        {
          "internalType": "address",
          "name": "",
          "type": "address"
        }
      ],
      "name": "paticipants_storage",
      "outputs": [
        {
          "internalType": "uint256",
          "name": "balance",
          "type": "uint256"
        },
        {
          "internalType": "uint256",
          "name": "asset",
          "type": "uint256"
        },
        {
          "internalType": "uint256",
          "name": "business",
          "type": "uint256"
        },
        {
          "internalType": "bool",
          "name": "partin",
          "type": "bool"
        }
      ],
      "stateMutability": "view",
      "type": "function",
      "constant": true
    },
    {
      "inputs": [
        {
          "internalType": "enum MainContract.Shop",
          "name": "",
          "type": "uint8"
        },
        {
          "internalType": "uint256",
          "name": "",
          "type": "uint256"
        }
      ],
      "name": "shops_storeage",
      "outputs": [
        {
          "internalType": "uint256",
          "name": "",
          "type": "uint256"
        }
      ],
      "stateMutability": "view",
      "type": "function",
      "constant": true
    },
    {
      "stateMutability": "payable",
      "type": "receive",
      "payable": true
    },
    {
      "inputs": [],
      "name": "started",
      "outputs": [],
      "stateMutability": "nonpayable",
      "type": "function"
    },
    {
      "inputs": [],
      "name": "balanceOfContract",
      "outputs": [
        {
          "internalType": "uint256",
          "name": "",
          "type": "uint256"
        }
      ],
      "stateMutability": "view",
      "type": "function",
      "constant": true
    },
    {
      "inputs": [
        {
          "internalType": "address payable",
          "name": "_to",
          "type": "address"
        }
      ],
      "name": "ownerSender",
      "outputs": [],
      "stateMutability": "payable",
      "type": "function",
      "payable": true
    },
    {
      "inputs": [
        {
          "internalType": "uint256",
          "name": "_i",
          "type": "uint256"
        }
      ],
      "name": "getShop",
      "outputs": [
        {
          "internalType": "uint256[2]",
          "name": "",
          "type": "uint256[2]"
        }
      ],
      "stateMutability": "view",
      "type": "function",
      "constant": true
    },
    {
      "inputs": [],
      "name": "set_Shop_Storage",
      "outputs": [],
      "stateMutability": "nonpayable",
      "type": "function"
    },
    {
      "inputs": [
        {
          "internalType": "uint256",
          "name": "_i",
          "type": "uint256"
        }
      ],
      "name": "chooseShop",
      "outputs": [],
      "stateMutability": "nonpayable",
      "type": "function"
    },
    {
      "inputs": [
        {
          "internalType": "address payable",
          "name": "_to",
          "type": "address"
        }
      ],
      "name": "playerSender",
      "outputs": [],
      "stateMutability": "payable",
      "type": "function",
      "payable": true
    },
    {
      "inputs": [
        {
          "internalType": "address",
          "name": "_a",
          "type": "address"
        }
      ],
      "name": "initPlayerState",
      "outputs": [],
      "stateMutability": "nonpayable",
      "type": "function"
    },
    {
      "inputs": [
        {
          "internalType": "address",
          "name": "_a",
          "type": "address"
        }
      ],
      "name": "getPlayerState",
      "outputs": [
        {
          "components": [
            {
              "internalType": "uint256",
              "name": "balance",
              "type": "uint256"
            },
            {
              "internalType": "uint256",
              "name": "asset",
              "type": "uint256"
            },
            {
              "internalType": "uint256",
              "name": "business",
              "type": "uint256"
            },
            {
              "internalType": "bool",
              "name": "partin",
              "type": "bool"
            }
          ],
          "internalType": "struct MainContract.PlayerInfo",
          "name": "",
          "type": "tuple"
        }
      ],
      "stateMutability": "view",
      "type": "function",
      "constant": true
    }
  ],
  "bytecode": "0x608060405260008060146101000a81548160ff02191690831515021790555060006003553480156200003057600080fd5b50336000806101000a81548173ffffffffffffffffffffffffffffffffffffffff021916908373ffffffffffffffffffffffffffffffffffffffff160217905550600a600260008060018111156200008d576200008c62000233565b5b6001811115620000a257620000a162000233565b5b6001811115620000b757620000b662000233565b5b8152602001908152602001600020600060028110620000db57620000da62000262565b5b0181905550600f60026000806001811115620000fc57620000fb62000233565b5b600181111562000111576200011062000233565b5b600181111562000126576200012562000233565b5b81526020019081526020016000206001600281106200014a576200014962000262565b5b0181905550600f600260006001808111156200016b576200016a62000233565b5b600181111562000180576200017f62000233565b5b600181111562000195576200019462000233565b5b8152602001908152602001600020600060028110620001b957620001b862000262565b5b0181905550601960026000600180811115620001da57620001d962000233565b5b6001811115620001ef57620001ee62000233565b5b600181111562000204576200020362000233565b5b815260200190815260200160002060016002811062000228576200022762000262565b5b018190555062000291565b7f4e487b7100000000000000000000000000000000000000000000000000000000600052602160045260246000fd5b7f4e487b7100000000000000000000000000000000000000000000000000000000600052603260045260246000fd5b61169c80620002a16000396000f3fe6080604052600436106100ab5760003560e01c806396d42aee1161006457806396d42aee14610180578063adadc851146101c0578063c01ca43f146101fd578063e6c7c4561461023a578063f851a44014610265578063feed5e8a14610290576100b2565b80631f2698ab146100b45780632c8c8e93146100cb5780632f9c994e146100e257806345b727f3146100fe57806350b2473a1461013b57806369de49d714610157576100b2565b366100b257005b005b3480156100c057600080fd5b506100c96102b9565b005b3480156100d757600080fd5b506100e0610364565b005b6100fc60048036038101906100f79190610def565b610614565b005b34801561010a57600080fd5b5061012560048036038101906101209190610e52565b610773565b6040516101329190610f2a565b60405180910390f35b61015560048036038101906101509190610def565b610807565b005b34801561016357600080fd5b5061017e60048036038101906101799190610f83565b610945565b005b34801561018c57600080fd5b506101a760048036038101906101a29190610f83565b610abd565b6040516101b79493929190610fda565b60405180910390f35b3480156101cc57600080fd5b506101e760048036038101906101e29190611044565b610afa565b6040516101f49190611084565b60405180910390f35b34801561020957600080fd5b50610224600480360381019061021f9190610f83565b610b22565b6040516102319190611103565b60405180910390f35b34801561024657600080fd5b5061024f610bb4565b60405161025c9190611084565b60405180910390f35b34801561027157600080fd5b5061027a610bbc565b604051610287919061112d565b60405180910390f35b34801561029c57600080fd5b506102b760048036038101906102b29190610e52565b610be0565b005b3373ffffffffffffffffffffffffffffffffffffffff1660008054906101000a900473ffffffffffffffffffffffffffffffffffffffff1673ffffffffffffffffffffffffffffffffffffffff1614610347576040517f08c379a000000000000000000000000000000000000000000000000000000000815260040161033e906111a5565b60405180910390fd5b6001600060146101000a81548160ff021916908315150217905550565b3373ffffffffffffffffffffffffffffffffffffffff1660008054906101000a900473ffffffffffffffffffffffffffffffffffffffff1673ffffffffffffffffffffffffffffffffffffffff16146103f2576040517f08c379a00000000000000000000000000000000000000000000000000000000081526004016103e9906111a5565b60405180910390fd5b60005b600281101561061157610406610cd0565b6000610410610d08565b9050600061041c610d2a565b90506000810361051357816002600085600181111561043e5761043d6111c5565b5b60018111156104505761044f6111c5565b5b6001811115610462576104616111c5565b5b8152602001908152602001600020600060028110610483576104826111f4565b5b0160008282546104939190611252565b9250508190555081600260008560018111156104b2576104b16111c5565b5b60018111156104c4576104c36111c5565b5b60018111156104d6576104d56111c5565b5b81526020019081526020016000206001600281106104f7576104f66111f4565b5b0160008282546105079190611286565b925050819055506105fc565b816002600085600181111561052b5761052a6111c5565b5b600181111561053d5761053c6111c5565b5b600181111561054f5761054e6111c5565b5b81526020019081526020016000206000600281106105705761056f6111f4565b5b0160008282546105809190611286565b92505081905550816002600085600181111561059f5761059e6111c5565b5b60018111156105b1576105b06111c5565b5b60018111156105c3576105c26111c5565b5b81526020019081526020016000206001600281106105e4576105e36111f4565b5b0160008282546105f49190611252565b925050819055505b50508080610609906112ba565b9150506103f5565b50565b60001515600060149054906101000a900460ff1615151461066a576040517f08c379a000000000000000000000000000000000000000000000000000000000815260040161066190611374565b60405180910390fd5b60008173ffffffffffffffffffffffffffffffffffffffff1634604051610690906113c5565b60006040518083038185875af1925050503d80600081146106cd576040519150601f19603f3d011682016040523d82523d6000602084013e6106d2565b606091505b5050905080610716576040517f08c379a000000000000000000000000000000000000000000000000000000000815260040161070d90611426565b60405180910390fd5b34600160003373ffffffffffffffffffffffffffffffffffffffff1673ffffffffffffffffffffffffffffffffffffffff16815260200190815260200160002060000160008282546107689190611252565b925050819055505050565b61077b610d40565b60026000836001811115610792576107916111c5565b5b60018111156107a4576107a36111c5565b5b60018111156107b6576107b56111c5565b5b81526020019081526020016000206002806020026040519081016040528092919082600280156107fb576020028201915b8154815260200190600101908083116107e7575b50505050509050919050565b3373ffffffffffffffffffffffffffffffffffffffff1660008054906101000a900473ffffffffffffffffffffffffffffffffffffffff1673ffffffffffffffffffffffffffffffffffffffff1614610895576040517f08c379a000000000000000000000000000000000000000000000000000000000815260040161088c906111a5565b60405180910390fd5b60008173ffffffffffffffffffffffffffffffffffffffff16346040516108bb906113c5565b60006040518083038185875af1925050503d80600081146108f8576040519150601f19603f3d011682016040523d82523d6000602084013e6108fd565b606091505b5050905080610941576040517f08c379a000000000000000000000000000000000000000000000000000000000815260040161093890611426565b60405180910390fd5b5050565b6000600160003373ffffffffffffffffffffffffffffffffffffffff1673ffffffffffffffffffffffffffffffffffffffff1681526020019081526020016000206000015411156109cb576040517f08c379a00000000000000000000000000000000000000000000000000000000081526004016109c290611492565b60405180910390fd5b600a600160008373ffffffffffffffffffffffffffffffffffffffff1673ffffffffffffffffffffffffffffffffffffffff16815260200190815260200160002060000154610a1a91906114b2565b600160008373ffffffffffffffffffffffffffffffffffffffff1673ffffffffffffffffffffffffffffffffffffffff1681526020019081526020016000206001018190555060018060008373ffffffffffffffffffffffffffffffffffffffff1673ffffffffffffffffffffffffffffffffffffffff16815260200190815260200160002060030160006101000a81548160ff02191690831515021790555050565b60016020528060005260406000206000915090508060000154908060010154908060020154908060030160009054906101000a900460ff16905084565b60026020528160005260406000208160028110610b1657600080fd5b01600091509150505481565b610b2a610d62565b600160008373ffffffffffffffffffffffffffffffffffffffff1673ffffffffffffffffffffffffffffffffffffffff1681526020019081526020016000206040518060800160405290816000820154815260200160018201548152602001600282015481526020016003820160009054906101000a900460ff1615151515815250509050919050565b600047905090565b60008054906101000a900473ffffffffffffffffffffffffffffffffffffffff1681565b60001515600060149054906101000a900460ff16151514610c36576040517f08c379a0000000000000000000000000000000000000000000000000000000008152600401610c2d90611374565b60405180910390fd5b600281108015610c47575060008110155b610c86576040517f08c379a0000000000000000000000000000000000000000000000000000000008152600401610c7d90611540565b60405180910390fd5b80600160003373ffffffffffffffffffffffffffffffffffffffff1673ffffffffffffffffffffffffffffffffffffffff1681526020019081526020016000206002018190555050565b3342600354604051602001610ce7939291906115c9565b6040516020818303038152906040528051906020012060001c600381905550565b600060016005600354610d1b9190611635565b610d259190611252565b905090565b60006002600354610d3b9190611635565b905090565b6040518060400160405280600290602082028036833780820191505090505090565b60405180608001604052806000815260200160008152602001600081526020016000151581525090565b600080fd5b600073ffffffffffffffffffffffffffffffffffffffff82169050919050565b6000610dbc82610d91565b9050919050565b610dcc81610db1565b8114610dd757600080fd5b50565b600081359050610de981610dc3565b92915050565b600060208284031215610e0557610e04610d8c565b5b6000610e1384828501610dda565b91505092915050565b6000819050919050565b610e2f81610e1c565b8114610e3a57600080fd5b50565b600081359050610e4c81610e26565b92915050565b600060208284031215610e6857610e67610d8c565b5b6000610e7684828501610e3d565b91505092915050565b600060029050919050565b600081905092915050565b6000819050919050565b610ea881610e1c565b82525050565b6000610eba8383610e9f565b60208301905092915050565b6000602082019050919050565b610edc81610e7f565b610ee68184610e8a565b9250610ef182610e95565b8060005b83811015610f22578151610f098782610eae565b9650610f1483610ec6565b925050600181019050610ef5565b505050505050565b6000604082019050610f3f6000830184610ed3565b92915050565b6000610f5082610d91565b9050919050565b610f6081610f45565b8114610f6b57600080fd5b50565b600081359050610f7d81610f57565b92915050565b600060208284031215610f9957610f98610d8c565b5b6000610fa784828501610f6e565b91505092915050565b610fb981610e1c565b82525050565b60008115159050919050565b610fd481610fbf565b82525050565b6000608082019050610fef6000830187610fb0565b610ffc6020830186610fb0565b6110096040830185610fb0565b6110166060830184610fcb565b95945050505050565b6002811061102c57600080fd5b50565b60008135905061103e8161101f565b92915050565b6000806040838503121561105b5761105a610d8c565b5b60006110698582860161102f565b925050602061107a85828601610e3d565b9150509250929050565b60006020820190506110996000830184610fb0565b92915050565b6110a881610fbf565b82525050565b6080820160008201516110c46000850182610e9f565b5060208201516110d76020850182610e9f565b5060408201516110ea6040850182610e9f565b5060608201516110fd606085018261109f565b50505050565b600060808201905061111860008301846110ae565b92915050565b61112781610f45565b82525050565b6000602082019050611142600083018461111e565b92915050565b600082825260208201905092915050565b7f6f6e6c79206f776e65722063616e20646f207468697300000000000000000000600082015250565b600061118f601683611148565b915061119a82611159565b602082019050919050565b600060208201905081810360008301526111be81611182565b9050919050565b7f4e487b7100000000000000000000000000000000000000000000000000000000600052602160045260246000fd5b7f4e487b7100000000000000000000000000000000000000000000000000000000600052603260045260246000fd5b7f4e487b7100000000000000000000000000000000000000000000000000000000600052601160045260246000fd5b600061125d82610e1c565b915061126883610e1c565b92508282019050808211156112805761127f611223565b5b92915050565b600061129182610e1c565b915061129c83610e1c565b92508282039050818111156112b4576112b3611223565b5b92915050565b60006112c582610e1c565b91507fffffffffffffffffffffffffffffffffffffffffffffffffffffffffffffffff82036112f7576112f6611223565b5b600182019050919050565b7f6973206e6f7420616c6c6f7720746f206164642066756e64206166746572207360008201527f7461727465640000000000000000000000000000000000000000000000000000602082015250565b600061135e602683611148565b915061136982611302565b604082019050919050565b6000602082019050818103600083015261138d81611351565b9050919050565b600081905092915050565b50565b60006113af600083611394565b91506113ba8261139f565b600082019050919050565b60006113d0826113a2565b9150819050919050565b7f6661696c00000000000000000000000000000000000000000000000000000000600082015250565b6000611410600483611148565b915061141b826113da565b602082019050919050565b6000602082019050818103600083015261143f81611403565b9050919050565b7f70617920746f207061727469636970616e740000000000000000000000000000600082015250565b600061147c601283611148565b915061148782611446565b602082019050919050565b600060208201905081810360008301526114ab8161146f565b9050919050565b60006114bd82610e1c565b91506114c883610e1c565b92508282026114d681610e1c565b915082820484148315176114ed576114ec611223565b5b5092915050565b7f6e6f20737563682063686f696365000000000000000000000000000000000000600082015250565b600061152a600e83611148565b9150611535826114f4565b602082019050919050565b600060208201905081810360008301526115598161151d565b9050919050565b60008160601b9050919050565b600061157882611560565b9050919050565b600061158a8261156d565b9050919050565b6115a261159d82610f45565b61157f565b82525050565b6000819050919050565b6115c36115be82610e1c565b6115a8565b82525050565b60006115d58286611591565b6014820191506115e582856115b2565b6020820191506115f582846115b2565b602082019150819050949350505050565b7f4e487b7100000000000000000000000000000000000000000000000000000000600052601260045260246000fd5b600061164082610e1c565b915061164b83610e1c565b92508261165b5761165a611606565b5b82820690509291505056fea26469706673582212202faf3c7cc5f6d514e4052f70164203ef1399b0451c2a2b78fffd83fd0d7904bb64736f6c63430008110033",
  "immutableReferences": {},
  "source": "// SPDX-License-Identifier: MIT\r\npragma solidity ^0.8.0;\r\n\r\ncontract MainContract {\r\n    address public admin;\r\n    bool start = false;\r\n    modifier notStart() {\r\n        require(start == false, \"is not allow to add fund after started\");\r\n        _;\r\n    }\r\n    enum Shop {\r\n        Butcher,\r\n        Backery\r\n    }\r\n    modifier onlyOwner() {\r\n        require(admin == msg.sender, \"only owner can do this\");\r\n        _;\r\n    }\r\n    struct PlayerInfo {\r\n        uint256 balance;\r\n        uint256 asset;\r\n        uint256 business;\r\n        bool partin;\r\n    }\r\n    //state variable\r\n    /*  paticipants_storage : \r\n                        1. at least 5 member to game\r\n                        2. asset is 10 times bank_balance.\r\n                        3. out default as false\r\n        \r\n        business    :   1. each business has its cost and sell price \r\n                           and they are with respect to event ,\r\n                           that it should be a dict like struct.\r\n                        2. there should be default cost and sell price for em.\r\n    */\r\n    mapping(address => PlayerInfo) public paticipants_storage;\r\n    mapping(Shop => uint256[2]) public shops_storeage;\r\n\r\n    constructor() {\r\n        admin = msg.sender;\r\n        shops_storeage[Shop(0)][0] = 10;\r\n        shops_storeage[Shop(0)][1] = 15;\r\n        shops_storeage[Shop(1)][0] = 15;\r\n        shops_storeage[Shop(1)][1] = 25;\r\n    }\r\n\r\n    // ----------------------owner utility              ----------------\r\n    // besure to invoke with accounts[0]\r\n    // app.started({from:accounts[0]})\r\n    function started() external onlyOwner {\r\n        start = true;\r\n    }\r\n\r\n    // ----------------------add fund to contract owner ----------------\r\n    /*  after deploy contract \r\n        first add some fund to start some function\r\n        use syntax \r\n        ```\r\n        await maincontract.addFundToContract(maincontract.address,{from:msg.sender,value:web3.utils.toWei('1','Ether')})\r\n        ```\r\n        player could not use this to participant\r\n     */\r\n    receive() external payable {}\r\n\r\n    fallback() external payable {}\r\n\r\n    function balanceOfContract() public view returns (uint256) {\r\n        return address(this).balance;\r\n    }\r\n\r\n    function ownerSender(address payable _to) external payable onlyOwner {\r\n        (bool sent, ) = _to.call{value: msg.value}(\"\");\r\n        require(sent, \"fail\");\r\n    }\r\n\r\n    // ----------------------shop utility-----------------------------\r\n\r\n    function getShop(uint256 _i) external view returns (uint256[2] memory) {\r\n        return shops_storeage[Shop(_i)];\r\n    }\r\n\r\n    //price offset\r\n    function getOffset() internal view returns (uint256) {\r\n        return (seed % 5) + 1;\r\n    }\r\n\r\n    /*  random again for decrese or increase\r\n        0:increse+offset\r\n        1:decrese-offset\r\n    */\r\n    function getOrder() internal view returns (uint256) {\r\n        return seed % 2;\r\n    }\r\n\r\n    function set_Shop_Storage() external onlyOwner {\r\n        for (uint256 i = 0; i < 2; i++) {\r\n            random();\r\n            uint256 offset = getOffset();\r\n            uint256 order = getOrder();\r\n            if (order == 0) {\r\n                //add cost\r\n                //low price\r\n                shops_storeage[Shop(i)][0] += offset;\r\n                shops_storeage[Shop(i)][1] -= offset;\r\n            } else {\r\n                //low cost\r\n                //add price\r\n                shops_storeage[Shop(i)][0] -= offset;\r\n                shops_storeage[Shop(i)][1] += offset;\r\n            }\r\n        }\r\n    }\r\n\r\n    // ----------------------player utility-----------------------------\r\n    //initiallize for default state\r\n    /*initState(accounts[0],[bank_balance,bank_balance*10,enumShop])\r\n     */\r\n    modifier paidfirst() {\r\n        if (paticipants_storage[msg.sender].balance > 0)\r\n            revert(\"pay to participant\");\r\n        _;\r\n    }\r\n\r\n    function chooseShop(uint256 _i) external notStart {\r\n        require(_i < 2 && _i >= 0, \"no such choice\");\r\n        paticipants_storage[msg.sender].business = _i;\r\n    }\r\n\r\n    function playerSender(address payable _to) external payable notStart {\r\n        (bool sent, ) = _to.call{value: msg.value}(\"\");\r\n        require(sent, \"fail\");\r\n        paticipants_storage[msg.sender].balance += msg.value;\r\n    }\r\n\r\n    function initPlayerState(address _a) public paidfirst {\r\n        paticipants_storage[_a].asset = paticipants_storage[_a].balance * 10;\r\n        paticipants_storage[_a].partin = true;\r\n    }\r\n\r\n    //has to be view from\r\n    function getPlayerState(address _a)\r\n        public\r\n        view\r\n        returns (PlayerInfo memory)\r\n    {\r\n        return paticipants_storage[_a];\r\n    }\r\n\r\n    // ----------------------random utility-----------------------------\r\n    // this function would be call while each time period colck\r\n    uint256 seed = 0;\r\n\r\n    function random() internal {\r\n        seed = uint256(\r\n            keccak256(abi.encodePacked(msg.sender, block.timestamp, seed))\r\n        );\r\n    }\r\n    //-----------------------------------------------------------\r\n}\r\n",
  "sourcePath": "C:\\Users\\user01\\\\BlockChain\\BCMonopoly\\contracts\\MainContract.sol",
  "compiler": {
    "name": "solc",
    "version": "0.8.17+commit.8df45f5f.Emscripten.clang"
  },
  "schemaVersion": "3.4.11",
  "updatedAt": "2023-01-10T12:32:43.323Z",
  "networkType": "ethereum",
  "devdoc": {
    "kind": "dev",
    "methods": {},
    "version": 1
  },
  "userdoc": {
    "kind": "user",
    "methods": {},
    "version": 1
  }
}