{
  "contractName": "MainContract",
  "abi": [
    {
      "inputs": [],
      "stateMutability": "nonpayable",
      "type": "constructor"
    },
    {
      "inputs": [],
      "name": "admin",
      "outputs": [
        {
          "internalType": "address",
          "name": "",
          "type": "address"
        }
      ],
      "stateMutability": "view",
      "type": "function",
      "constant": true
    },
    {
      "inputs": [
        {
          "internalType": "address",
          "name": "",
          "type": "address"
        }
      ],
      "name": "paticipants_storage",
      "outputs": [
        {
          "internalType": "uint256",
          "name": "bank_balance",
          "type": "uint256"
        },
        {
          "internalType": "uint256",
          "name": "asset",
          "type": "uint256"
        },
        {
          "internalType": "enum MainContract.Shop",
          "name": "business",
          "type": "uint8"
        },
        {
          "internalType": "bool",
          "name": "out",
          "type": "bool"
        }
      ],
      "stateMutability": "view",
      "type": "function",
      "constant": true
    },
    {
      "inputs": [
        {
          "internalType": "enum MainContract.Shop",
          "name": "",
          "type": "uint8"
        },
        {
          "internalType": "uint256",
          "name": "",
          "type": "uint256"
        }
      ],
      "name": "shops_storeage",
      "outputs": [
        {
          "internalType": "uint256",
          "name": "",
          "type": "uint256"
        }
      ],
      "stateMutability": "view",
      "type": "function",
      "constant": true
    },
    {
      "inputs": [
        {
          "internalType": "address",
          "name": "_a",
          "type": "address"
        }
      ],
      "name": "depoBank",
      "outputs": [],
      "stateMutability": "nonpayable",
      "type": "function"
    },
    {
      "inputs": [],
      "name": "Bank_getbalance",
      "outputs": [
        {
          "internalType": "uint256",
          "name": "",
          "type": "uint256"
        }
      ],
      "stateMutability": "view",
      "type": "function",
      "constant": true
    },
    {
      "inputs": [
        {
          "internalType": "uint256",
          "name": "_i",
          "type": "uint256"
        }
      ],
      "name": "getShop",
      "outputs": [
        {
          "internalType": "uint256[2]",
          "name": "",
          "type": "uint256[2]"
        }
      ],
      "stateMutability": "view",
      "type": "function",
      "constant": true
    },
    {
      "inputs": [],
      "name": "set_Shop_Storage",
      "outputs": [],
      "stateMutability": "nonpayable",
      "type": "function"
    },
    {
      "inputs": [
        {
          "internalType": "address",
          "name": "_a",
          "type": "address"
        },
        {
          "components": [
            {
              "internalType": "uint256",
              "name": "bank_balance",
              "type": "uint256"
            },
            {
              "internalType": "uint256",
              "name": "asset",
              "type": "uint256"
            },
            {
              "internalType": "enum MainContract.Shop",
              "name": "business",
              "type": "uint8"
            },
            {
              "internalType": "bool",
              "name": "out",
              "type": "bool"
            }
          ],
          "internalType": "struct MainContract.PlayerInfo",
          "name": "_p",
          "type": "tuple"
        }
      ],
      "name": "initPlayerState",
      "outputs": [],
      "stateMutability": "nonpayable",
      "type": "function"
    },
    {
      "inputs": [
        {
          "internalType": "address",
          "name": "_a",
          "type": "address"
        }
      ],
      "name": "getPlayerState",
      "outputs": [
        {
          "components": [
            {
              "internalType": "uint256",
              "name": "bank_balance",
              "type": "uint256"
            },
            {
              "internalType": "uint256",
              "name": "asset",
              "type": "uint256"
            },
            {
              "internalType": "enum MainContract.Shop",
              "name": "business",
              "type": "uint8"
            },
            {
              "internalType": "bool",
              "name": "out",
              "type": "bool"
            }
          ],
          "internalType": "struct MainContract.PlayerInfo",
          "name": "",
          "type": "tuple"
        }
      ],
      "stateMutability": "view",
      "type": "function",
      "constant": true
    }
  ],
  "bytecode": "0x608060405260006004553480156200001657600080fd5b50336000806101000a81548173ffffffffffffffffffffffffffffffffffffffff021916908373ffffffffffffffffffffffffffffffffffffffff160217905550600a6003600080600181111562000073576200007262000219565b5b600181111562000088576200008762000219565b5b60018111156200009d576200009c62000219565b5b8152602001908152602001600020600060028110620000c157620000c062000248565b5b0181905550600f60036000806001811115620000e257620000e162000219565b5b6001811115620000f757620000f662000219565b5b60018111156200010c576200010b62000219565b5b815260200190815260200160002060016002811062000130576200012f62000248565b5b0181905550600f6003600060018081111562000151576200015062000219565b5b600181111562000166576200016562000219565b5b60018111156200017b576200017a62000219565b5b81526020019081526020016000206000600281106200019f576200019e62000248565b5b0181905550601960036000600180811115620001c057620001bf62000219565b5b6001811115620001d557620001d462000219565b5b6001811115620001ea57620001e962000219565b5b81526020019081526020016000206001600281106200020e576200020d62000248565b5b018190555062000277565b7f4e487b7100000000000000000000000000000000000000000000000000000000600052602160045260246000fd5b7f4e487b7100000000000000000000000000000000000000000000000000000000600052603260045260246000fd5b61112380620002876000396000f3fe608060405234801561001057600080fd5b50600436106100935760003560e01c8063adadc85111610066578063adadc85114610123578063c01ca43f14610153578063f143f6b114610183578063f3fd4aee1461019f578063f851a440146101bb57610093565b80632c8c8e931461009857806345b727f3146100a257806396d42aee146100d2578063a79a61f814610105575b600080fd5b6100a06101d9565b005b6100bc60048036038101906100b7919061082e565b6103fb565b6040516100c99190610906565b60405180910390f35b6100ec60048036038101906100e7919061097f565b61048f565b6040516100fc9493929190610a4d565b60405180910390f35b61010d6104d9565b60405161011a9190610a92565b60405180910390f35b61013d60048036038101906101389190610ad2565b610576565b60405161014a9190610a92565b60405180910390f35b61016d6004803603810190610168919061097f565b61059e565b60405161017a9190610b85565b60405180910390f35b61019d6004803603810190610198919061097f565b610661565b005b6101b960048036038101906101b49190610bc4565b6106a5565b005b6101c3610701565b6040516101d09190610c13565b60405180910390f35b60005b60028110156103f8576101ed610725565b60006101f761075d565b9050600061020361077f565b9050600081036102fa578160036000856001811115610225576102246109bb565b5b6001811115610237576102366109bb565b5b6001811115610249576102486109bb565b5b815260200190815260200160002060006002811061026a57610269610c2e565b5b01600082825461027a9190610c8c565b925050819055508160036000856001811115610299576102986109bb565b5b60018111156102ab576102aa6109bb565b5b60018111156102bd576102bc6109bb565b5b81526020019081526020016000206001600281106102de576102dd610c2e565b5b0160008282546102ee9190610cc0565b925050819055506103e3565b8160036000856001811115610312576103116109bb565b5b6001811115610324576103236109bb565b5b6001811115610336576103356109bb565b5b815260200190815260200160002060006002811061035757610356610c2e565b5b0160008282546103679190610cc0565b925050819055508160036000856001811115610386576103856109bb565b5b6001811115610398576103976109bb565b5b60018111156103aa576103a96109bb565b5b81526020019081526020016000206001600281106103cb576103ca610c2e565b5b0160008282546103db9190610c8c565b925050819055505b505080806103f090610cf4565b9150506101dc565b50565b610403610795565b6003600083600181111561041a576104196109bb565b5b600181111561042c5761042b6109bb565b5b600181111561043e5761043d6109bb565b5b8152602001908152602001600020600280602002604051908101604052809291908260028015610483576020028201915b81548152602001906001019080831161046f575b50505050509050919050565b60026020528060005260406000206000915090508060000154908060010154908060020160009054906101000a900460ff16908060020160019054906101000a900460ff16905084565b600080600160009054906101000a900473ffffffffffffffffffffffffffffffffffffffff1690508073ffffffffffffffffffffffffffffffffffffffff16634d9b3d5d6040518163ffffffff1660e01b8152600401602060405180830381865afa15801561054c573d6000803e3d6000fd5b505050506040513d601f19601f820116820180604052508101906105709190610d51565b91505090565b6003602052816000526040600020816002811061059257600080fd5b01600091509150505481565b6105a66107b7565b600260008373ffffffffffffffffffffffffffffffffffffffff1673ffffffffffffffffffffffffffffffffffffffff16815260200190815260200160002060405180608001604052908160008201548152602001600182015481526020016002820160009054906101000a900460ff166001811115610629576106286109bb565b5b600181111561063b5761063a6109bb565b5b81526020016002820160019054906101000a900460ff1615151515815250509050919050565b80600160006101000a81548173ffffffffffffffffffffffffffffffffffffffff021916908373ffffffffffffffffffffffffffffffffffffffff16021790555050565b6106ad6107b7565b81600260008573ffffffffffffffffffffffffffffffffffffffff1673ffffffffffffffffffffffffffffffffffffffff16815260200190815260200160002081816106f99190610fd9565b905050505050565b60008054906101000a900473ffffffffffffffffffffffffffffffffffffffff1681565b334260045460405160200161073c93929190611050565b6040516020818303038152906040528051906020012060001c600481905550565b60006001600560045461077091906110bc565b61077a9190610c8c565b905090565b6000600260045461079091906110bc565b905090565b6040518060400160405280600290602082028036833780820191505090505090565b60405180608001604052806000815260200160008152602001600060018111156107e4576107e36109bb565b5b81526020016000151581525090565b600080fd5b6000819050919050565b61080b816107f8565b811461081657600080fd5b50565b60008135905061082881610802565b92915050565b600060208284031215610844576108436107f3565b5b600061085284828501610819565b91505092915050565b600060029050919050565b600081905092915050565b6000819050919050565b610884816107f8565b82525050565b6000610896838361087b565b60208301905092915050565b6000602082019050919050565b6108b88161085b565b6108c28184610866565b92506108cd82610871565b8060005b838110156108fe5781516108e5878261088a565b96506108f0836108a2565b9250506001810190506108d1565b505050505050565b600060408201905061091b60008301846108af565b92915050565b600073ffffffffffffffffffffffffffffffffffffffff82169050919050565b600061094c82610921565b9050919050565b61095c81610941565b811461096757600080fd5b50565b60008135905061097981610953565b92915050565b600060208284031215610995576109946107f3565b5b60006109a38482850161096a565b91505092915050565b6109b5816107f8565b82525050565b7f4e487b7100000000000000000000000000000000000000000000000000000000600052602160045260246000fd5b600281106109fb576109fa6109bb565b5b50565b6000819050610a0c826109ea565b919050565b6000610a1c826109fe565b9050919050565b610a2c81610a11565b82525050565b60008115159050919050565b610a4781610a32565b82525050565b6000608082019050610a6260008301876109ac565b610a6f60208301866109ac565b610a7c6040830185610a23565b610a896060830184610a3e565b95945050505050565b6000602082019050610aa760008301846109ac565b92915050565b60028110610aba57600080fd5b50565b600081359050610acc81610aad565b92915050565b60008060408385031215610ae957610ae86107f3565b5b6000610af785828601610abd565b9250506020610b0885828601610819565b9150509250929050565b610b1b81610a11565b82525050565b610b2a81610a32565b82525050565b608082016000820151610b46600085018261087b565b506020820151610b59602085018261087b565b506040820151610b6c6040850182610b12565b506060820151610b7f6060850182610b21565b50505050565b6000608082019050610b9a6000830184610b30565b92915050565b600080fd5b600060808284031215610bbb57610bba610ba0565b5b81905092915050565b60008060a08385031215610bdb57610bda6107f3565b5b6000610be98582860161096a565b9250506020610bfa85828601610ba5565b9150509250929050565b610c0d81610941565b82525050565b6000602082019050610c286000830184610c04565b92915050565b7f4e487b7100000000000000000000000000000000000000000000000000000000600052603260045260246000fd5b7f4e487b7100000000000000000000000000000000000000000000000000000000600052601160045260246000fd5b6000610c97826107f8565b9150610ca2836107f8565b9250828201905080821115610cba57610cb9610c5d565b5b92915050565b6000610ccb826107f8565b9150610cd6836107f8565b9250828203905081811115610cee57610ced610c5d565b5b92915050565b6000610cff826107f8565b91507fffffffffffffffffffffffffffffffffffffffffffffffffffffffffffffffff8203610d3157610d30610c5d565b5b600182019050919050565b600081519050610d4b81610802565b92915050565b600060208284031215610d6757610d666107f3565b5b6000610d7584828501610d3c565b91505092915050565b60008135610d8b81610802565b80915050919050565b60008160001b9050919050565b60007fffffffffffffffffffffffffffffffffffffffffffffffffffffffffffffffff610dcd84610d94565b9350801983169250808416831791505092915050565b6000819050919050565b6000610e08610e03610dfe846107f8565b610de3565b6107f8565b9050919050565b6000819050919050565b610e2282610ded565b610e35610e2e82610e0f565b8354610da1565b8255505050565b60008135610e4981610aad565b80915050919050565b600060ff610e5f84610d94565b9350801983169250808416831791505092915050565b6000610e80826109fe565b9050919050565b6000819050919050565b610e9a82610e75565b610ead610ea682610e87565b8354610e52565b8255505050565b610ebd81610a32565b8114610ec857600080fd5b50565b60008135610ed881610eb4565b80915050919050565b60008160081b9050919050565b600061ff00610efc84610ee1565b9350801983169250808416831791505092915050565b6000610f1d82610a32565b9050919050565b6000819050919050565b610f3782610f12565b610f4a610f4382610f24565b8354610eee565b8255505050565b600081016000830180610f6381610d7e565b9050610f6f8184610e19565b505050600181016020830180610f8481610d7e565b9050610f908184610e19565b505050600281016040830180610fa581610e3c565b9050610fb18184610e91565b505050600281016060830180610fc681610ecb565b9050610fd28184610f2e565b5050505050565b610fe38282610f51565b5050565b60008160601b9050919050565b6000610fff82610fe7565b9050919050565b600061101182610ff4565b9050919050565b61102961102482610941565b611006565b82525050565b6000819050919050565b61104a611045826107f8565b61102f565b82525050565b600061105c8286611018565b60148201915061106c8285611039565b60208201915061107c8284611039565b602082019150819050949350505050565b7f4e487b7100000000000000000000000000000000000000000000000000000000600052601260045260246000fd5b60006110c7826107f8565b91506110d2836107f8565b9250826110e2576110e161108d565b5b82820690509291505056fea2646970667358221220bdb9649427af4552fd6d1884110bb078f9e00a55ff5797589bf5ec82073e2a6164736f6c63430008110033",
  "immutableReferences": {},
  "source": "// SPDX-License-Identifier: MIT\r\npragma solidity ^0.8.0;\r\nimport \"./Bank.sol\";\r\n\r\ncontract MainContract {\r\n    address public admin;\r\n    address bank_interface;\r\n    enum Shop {\r\n        Butcher,\r\n        Backery\r\n    }\r\n    modifier onlyOwner() {\r\n        if (admin == msg.sender) revert(\"only owner can do this\");\r\n        _;\r\n    }\r\n    struct PlayerInfo {\r\n        uint256 bank_balance;\r\n        uint256 asset;\r\n        Shop business;\r\n        bool out;\r\n    }\r\n    //state variable\r\n    /*  paticipants_storage :   1. no restriction for number of player.\r\n                        2. asset is 10 times bank_balance.\r\n                        3. out default as false\r\n        \r\n        business    :   1. each business has its cost and sell price \r\n                           and they are with respect to event ,\r\n                           that it should be a dict like struct.\r\n                        2. there should be default cost and sell price for em.\r\n    */\r\n    mapping(address => PlayerInfo) public paticipants_storage;\r\n    mapping(Shop => uint256[2]) public shops_storeage;\r\n\r\n    constructor() {\r\n        admin = msg.sender;\r\n        shops_storeage[Shop(0)][0] = 10;\r\n        shops_storeage[Shop(0)][1] = 15;\r\n        shops_storeage[Shop(1)][0] = 15;\r\n        shops_storeage[Shop(1)][1] = 25;\r\n    }\r\n\r\n    // ----------------------instantiate interface--------------------\r\n    function depoBank(address _a) external {\r\n        bank_interface = _a;\r\n    }\r\n\r\n    // ----------------------bank utility-----------------------------\r\n    function Bank_getbalance() external view returns (uint256) {\r\n        Bank bank_instance = Bank(bank_interface);\r\n        return bank_instance.getbalance();\r\n    }\r\n\r\n    // ----------------------shop utility-----------------------------\r\n\r\n    function getShop(uint256 _i) external view returns (uint256[2] memory) {\r\n        return shops_storeage[Shop(_i)];\r\n    }\r\n\r\n    // function selectShop(uint256 _i) external {\r\n    //     if (_i < 2 && _i >= 0)\r\n    //         revert(\"there are currently two types of shop to chose\");\r\n    // }\r\n\r\n    //price offset\r\n    function getOffset() internal view returns (uint256) {\r\n        return (seed % 5) + 1;\r\n    }\r\n\r\n    /*  random again for decrese or increase\r\n        0:increse+offset\r\n        1:decrese-offset\r\n    */\r\n    function getOrder() internal view returns (uint256) {\r\n        return seed % 2;\r\n    }\r\n\r\n    function set_Shop_Storage() external {\r\n        for (uint256 i = 0; i < 2; i++) {\r\n            random();\r\n            uint256 offset = getOffset();\r\n            uint256 order = getOrder();\r\n            if (order == 0) {\r\n                //add cost\r\n                //low price\r\n                shops_storeage[Shop(i)][0] += offset;\r\n                shops_storeage[Shop(i)][1] -= offset;\r\n            } else {\r\n                //low cost\r\n                //add price\r\n                shops_storeage[Shop(i)][0] -= offset;\r\n                shops_storeage[Shop(i)][1] += offset;\r\n            }\r\n        }\r\n    }\r\n\r\n    // ----------------------player utility-----------------------------\r\n    //initiallize for default state\r\n    /*initState(accounts[0],[bank_balance,bank_balance*10,enumShop])\r\n     */\r\n    function initPlayerState(address _a, PlayerInfo calldata _p) public {\r\n        PlayerInfo memory p;\r\n        // if()asdfsdfa\r\n        paticipants_storage[_a] = _p;\r\n    }\r\n\r\n    //has to be view from\r\n    function getPlayerState(address _a)\r\n        public\r\n        view\r\n        returns (PlayerInfo memory)\r\n    {\r\n        return paticipants_storage[_a];\r\n    }\r\n\r\n    // ----------------------random utility-----------------------------\r\n    // this function would be call while each time period colck\r\n    uint256 seed = 0;\r\n\r\n    function random() internal {\r\n        seed = uint256(\r\n            keccak256(abi.encodePacked(msg.sender, block.timestamp, seed))\r\n        );\r\n    }\r\n    //-----------------------------------------------------------\r\n}\r\n",
  "sourcePath": "C:\\Users\\user01\\\\BlockChain\\BCMonopoly\\contracts\\MainContract.sol",
  "compiler": {
    "name": "solc",
    "version": "0.8.17+commit.8df45f5f.Emscripten.clang"
  },
  "schemaVersion": "3.4.11",
  "updatedAt": "2023-01-05T14:13:17.945Z",
  "networkType": "ethereum",
  "devdoc": {
    "kind": "dev",
    "methods": {},
    "version": 1
  },
  "userdoc": {
    "kind": "user",
    "methods": {},
    "version": 1
  }
}