{
  "contractName": "Runner",
  "abi": [
    {
      "inputs": [
        {
          "internalType": "address",
          "name": "_a",
          "type": "address"
        }
      ],
      "name": "depotestsyntax",
      "outputs": [],
      "stateMutability": "nonpayable",
      "type": "function"
    },
    {
      "inputs": [],
      "name": "testsyntax_getvalue",
      "outputs": [
        {
          "internalType": "uint256",
          "name": "",
          "type": "uint256"
        }
      ],
      "stateMutability": "pure",
      "type": "function"
    }
  ],
  "bytecode": "0x608060405234801561001057600080fd5b506101b7806100206000396000f3fe608060405234801561001057600080fd5b50600436106100365760003560e01c806322ebf1de1461003b578063307acbce14610057575b600080fd5b61005560048036038101906100509190610120565b610075565b005b61005f6100b8565b60405161006c9190610166565b60405180910390f35b806000806101000a81548173ffffffffffffffffffffffffffffffffffffffff021916908373ffffffffffffffffffffffffffffffffffffffff16021790555050565b600090565b600080fd5b600073ffffffffffffffffffffffffffffffffffffffff82169050919050565b60006100ed826100c2565b9050919050565b6100fd816100e2565b811461010857600080fd5b50565b60008135905061011a816100f4565b92915050565b600060208284031215610136576101356100bd565b5b60006101448482850161010b565b91505092915050565b6000819050919050565b6101608161014d565b82525050565b600060208201905061017b6000830184610157565b9291505056fea2646970667358221220d50118d6013094e7c22f4ef4627d091c9dfb82281bbff36bfc7f257eca60ea5364736f6c63430008110033",
  "immutableReferences": {},
  "source": "// SPDX-License-Identifier: MIT\r\npragma solidity ^0.8.0;\r\nimport \"./TestSyntax.sol\";\r\n\r\ncontract Runner {\r\n    address testsyntax_interface;\r\n\r\n    function depotestsyntax(address _a) external {\r\n        testsyntax_interface = _a;\r\n    }\r\n\r\n    function testsyntax_getvalue() external pure returns (uint256) {\r\n        // TestSyntax instance = TestSyntax(testsyntax_interface);\r\n    }\r\n}\r\n",
  "sourcePath": "C:\\Users\\user01\\桌面\\BlockChain\\BCMonopoly\\contracts\\Runner.sol",
  "compiler": {
    "name": "solc",
    "version": "0.8.17+commit.8df45f5f.Emscripten.clang"
  },
  "schemaVersion": "3.4.11",
  "updatedAt": "2023-01-10T12:32:39.157Z",
  "devdoc": {
    "kind": "dev",
    "methods": {},
    "version": 1
  },
  "userdoc": {
    "kind": "user",
    "methods": {},
    "version": 1
  }
}