{
  "contractName": "testSytax",
  "abi": [
    {
      "inputs": [
        {
          "internalType": "enum testSytax.Store",
          "name": "",
          "type": "uint8"
        },
        {
          "internalType": "uint256",
          "name": "",
          "type": "uint256"
        }
      ],
      "name": "stores",
      "outputs": [
        {
          "internalType": "uint256",
          "name": "",
          "type": "uint256"
        }
      ],
      "stateMutability": "view",
      "type": "function"
    },
    {
      "inputs": [
        {
          "internalType": "uint256",
          "name": "_i",
          "type": "uint256"
        }
      ],
      "name": "for_test",
      "outputs": [
        {
          "internalType": "uint256",
          "name": "",
          "type": "uint256"
        }
      ],
      "stateMutability": "view",
      "type": "function"
    }
  ],
  "bytecode": "0x608060405234801561001057600080fd5b5061029e806100206000396000f3fe608060405234801561001057600080fd5b50600436106100365760003560e01c80631ec05fa71461003b578063e0630efa1461006b575b600080fd5b6100556004803603810190610050919061015a565b61009b565b60405161006291906101a9565b60405180910390f35b610085600480360381019061008091906101c4565b6100c3565b60405161009291906101a9565b60405180910390f35b600060205281600052604060002081600281106100b757600080fd5b01600091509150505481565b6000805b600a8110156100f15782806100db90610220565b93505080806100e990610220565b9150506100c7565b82915050919050565b600080fd5b6002811061010c57600080fd5b50565b60008135905061011e816100ff565b92915050565b6000819050919050565b61013781610124565b811461014257600080fd5b50565b6000813590506101548161012e565b92915050565b60008060408385031215610171576101706100fa565b5b600061017f8582860161010f565b925050602061019085828601610145565b9150509250929050565b6101a381610124565b82525050565b60006020820190506101be600083018461019a565b92915050565b6000602082840312156101da576101d96100fa565b5b60006101e884828501610145565b91505092915050565b7f4e487b7100000000000000000000000000000000000000000000000000000000600052601160045260246000fd5b600061022b82610124565b91507fffffffffffffffffffffffffffffffffffffffffffffffffffffffffffffffff820361025d5761025c6101f1565b5b60018201905091905056fea26469706673582212206d5db0e2c2306185fcc887fc6cdcb3964e2ecd352b1b5b9356c8e1bf2ae6f25264736f6c63430008110033",
  "immutableReferences": {},
  "source": "pragma solidity ^0.8.0;\r\n\r\ncontract testSytax {\r\n    function for_test(uint256 _i) external view returns (uint256) {\r\n        uint256 time;\r\n        for (time; time < 10; time++) {\r\n            _i++;\r\n        }\r\n        return _i;\r\n    }\r\n\r\n    enum Store {\r\n        Backery,\r\n        Butcher\r\n    }\r\n    mapping(Store => uint256[2]) public stores;\r\n\r\n    // struct Stores {\r\n    //     string name;\r\n    //     uint256 cost;\r\n    //     uint256 sell;\r\n    // }\r\n    // constructor(){\r\n\r\n    // }\r\n}\r\n",
  "sourcePath": "C:\\Users\\user01\\\\BCMonopoly\\contracts\\testSyntax.sol",
  "compiler": {
    "name": "solc",
    "version": "0.8.17+commit.8df45f5f.Emscripten.clang"
  },
  "schemaVersion": "3.4.11",
  "updatedAt": "2022-12-28T02:28:56.885Z",
  "devdoc": {
    "kind": "dev",
    "methods": {},
    "version": 1
  },
  "userdoc": {
    "kind": "user",
    "methods": {},
    "version": 1
  }
}