{
  "contractName": "TestSyntax",
  "abi": [
    {
      "inputs": [],
      "stateMutability": "nonpayable",
      "type": "constructor"
    },
    {
      "inputs": [
        {
          "internalType": "enum TestSyntax.Store",
          "name": "",
          "type": "uint8"
        },
        {
          "internalType": "uint256",
          "name": "",
          "type": "uint256"
        }
      ],
      "name": "stores",
      "outputs": [
        {
          "internalType": "uint256",
          "name": "",
          "type": "uint256"
        }
      ],
      "stateMutability": "view",
      "type": "function"
    },
    {
      "inputs": [
        {
          "internalType": "uint256",
          "name": "_i",
          "type": "uint256"
        }
      ],
      "name": "getStoreData",
      "outputs": [
        {
          "internalType": "uint256[2]",
          "name": "",
          "type": "uint256[2]"
        }
      ],
      "stateMutability": "view",
      "type": "function"
    }
  ],
  "bytecode": "0x608060405234801561001057600080fd5b5060005b60028110156100f457600a600080836001811115610035576100346100fa565b5b6001811115610047576100466100fa565b5b6001811115610059576100586100fa565b5b815260200190815260200160002060006002811061007a57610079610129565b5b0181905550600f600080836001811115610097576100966100fa565b5b60018111156100a9576100a86100fa565b5b60018111156100bb576100ba6100fa565b5b81526020019081526020016000206001600281106100dc576100db610129565b5b018190555080806100ec90610191565b915050610014565b506101d9565b7f4e487b7100000000000000000000000000000000000000000000000000000000600052602160045260246000fd5b7f4e487b7100000000000000000000000000000000000000000000000000000000600052603260045260246000fd5b7f4e487b7100000000000000000000000000000000000000000000000000000000600052601160045260246000fd5b6000819050919050565b600061019c82610187565b91507fffffffffffffffffffffffffffffffffffffffffffffffffffffffffffffffff82036101ce576101cd610158565b5b600182019050919050565b61039a806101e86000396000f3fe608060405234801561001057600080fd5b50600436106100365760003560e01c80631ec05fa71461003b578063e60d6f661461006b575b600080fd5b610055600480360381019061005091906101d8565b61009b565b6040516100629190610227565b60405180910390f35b61008560048036038101906100809190610242565b6100c3565b604051610092919061031a565b60405180910390f35b600060205281600052604060002081600281106100b757600080fd5b01600091509150505481565b6100cb610156565b6000808360018111156100e1576100e0610335565b5b60018111156100f3576100f2610335565b5b600181111561010557610104610335565b5b815260200190815260200160002060028060200260405190810160405280929190826002801561014a576020028201915b815481526020019060010190808311610136575b50505050509050919050565b6040518060400160405280600290602082028036833780820191505090505090565b600080fd5b6002811061018a57600080fd5b50565b60008135905061019c8161017d565b92915050565b6000819050919050565b6101b5816101a2565b81146101c057600080fd5b50565b6000813590506101d2816101ac565b92915050565b600080604083850312156101ef576101ee610178565b5b60006101fd8582860161018d565b925050602061020e858286016101c3565b9150509250929050565b610221816101a2565b82525050565b600060208201905061023c6000830184610218565b92915050565b60006020828403121561025857610257610178565b5b6000610266848285016101c3565b91505092915050565b600060029050919050565b600081905092915050565b6000819050919050565b610298816101a2565b82525050565b60006102aa838361028f565b60208301905092915050565b6000602082019050919050565b6102cc8161026f565b6102d6818461027a565b92506102e182610285565b8060005b838110156103125781516102f9878261029e565b9650610304836102b6565b9250506001810190506102e5565b505050505050565b600060408201905061032f60008301846102c3565b92915050565b7f4e487b7100000000000000000000000000000000000000000000000000000000600052602160045260246000fdfea26469706673582212205afa103ab156b8b3b6b2c3822b33700fd1e4afda80df0bc9bcb4d92cafc8fcd164736f6c63430008110033",
  "immutableReferences": {},
  "source": "// SPDX-License-Identifier: MIT\r\npragma solidity ^0.8.0;\r\n\r\nimport \"./HelperFunction.sol\";\r\n\r\ncontract TestSyntax {\r\n    // function for_test(uint256 _i) external view returns (uint256) {\r\n    //     uint256 time;\r\n    //     for (time; time < 10; time++) {\r\n    //         _i++;\r\n    //     }\r\n    //     return _i;\r\n    // }\r\n\r\n    enum Store {\r\n        Backery,\r\n        Butcher\r\n    }\r\n    mapping(Store => uint256[2]) public stores;\r\n\r\n    function getStoreData(uint256 _i)\r\n        external\r\n        view\r\n        returns (uint256[2] memory)\r\n    {\r\n        return stores[Store(_i)];\r\n    }\r\n\r\n    constructor() {\r\n        uint256 i;\r\n        for (i = 0; i < 2; i++) {\r\n            stores[Store(i)][0] = 10;\r\n            stores[Store(i)][1] = 15;\r\n        }\r\n    }\r\n\r\n    // function _random() public returns (uint256) {\r\n    //     return copy();\r\n    // }\r\n\r\n    // function _copy() external pure returns (uint256) {\r\n    //     return copy();\r\n    // }\r\n}\r\n",
  "sourcePath": "C:\\Users\\user01\\\\BlockChain\\BCMonopoly\\contracts\\TestSyntax.sol",
  "compiler": {
    "name": "solc",
    "version": "0.8.17+commit.8df45f5f.Emscripten.clang"
  },
  "schemaVersion": "3.4.11",
  "updatedAt": "2023-01-10T12:32:39.160Z",
  "devdoc": {
    "kind": "dev",
    "methods": {},
    "version": 1
  },
  "userdoc": {
    "kind": "user",
    "methods": {},
    "version": 1
  }
}