{
  "contractName": "testSyntax",
  "abi": [
    {
      "inputs": [],
      "stateMutability": "nonpayable",
      "type": "constructor"
    },
    {
      "inputs": [],
      "name": "getseed",
      "outputs": [
        {
          "internalType": "uint256",
          "name": "",
          "type": "uint256"
        }
      ],
      "stateMutability": "view",
      "type": "function",
      "constant": true
    },
    {
      "inputs": [],
      "name": "random",
      "outputs": [],
      "stateMutability": "nonpayable",
      "type": "function"
    },
    {
      "inputs": [
        {
          "internalType": "enum testSyntax.Store",
          "name": "",
          "type": "uint8"
        },
        {
          "internalType": "uint256",
          "name": "",
          "type": "uint256"
        }
      ],
      "name": "stores",
      "outputs": [
        {
          "internalType": "uint256",
          "name": "",
          "type": "uint256"
        }
      ],
      "stateMutability": "view",
      "type": "function",
      "constant": true
    },
    {
      "inputs": [
        {
          "internalType": "uint256",
          "name": "_i",
          "type": "uint256"
        }
      ],
      "name": "getStoreData",
      "outputs": [
        {
          "internalType": "uint256[2]",
          "name": "",
          "type": "uint256[2]"
        }
      ],
      "stateMutability": "view",
      "type": "function",
      "constant": true
    },
    {
      "inputs": [],
      "name": "_copy",
      "outputs": [
        {
          "internalType": "uint256",
          "name": "",
          "type": "uint256"
        }
      ],
      "stateMutability": "pure",
      "type": "function",
      "constant": true
    }
  ],
  "bytecode": "0x60806040526000805534801561001457600080fd5b5060005b60028110156100fa57600a6001600083600181111561003a57610039610100565b5b600181111561004c5761004b610100565b5b600181111561005e5761005d610100565b5b815260200190815260200160002060006002811061007f5761007e61012f565b5b0181905550600f6001600083600181111561009d5761009c610100565b5b60018111156100af576100ae610100565b5b60018111156100c1576100c0610100565b5b81526020019081526020016000206001600281106100e2576100e161012f565b5b018190555080806100f290610197565b915050610018565b506101df565b7f4e487b7100000000000000000000000000000000000000000000000000000000600052602160045260246000fd5b7f4e487b7100000000000000000000000000000000000000000000000000000000600052603260045260246000fd5b7f4e487b7100000000000000000000000000000000000000000000000000000000600052601160045260246000fd5b6000819050919050565b60006101a28261018d565b91507fffffffffffffffffffffffffffffffffffffffffffffffffffffffffffffffff82036101d4576101d361015e565b5b600182019050919050565b610628806101ee6000396000f3fe608060405234801561001057600080fd5b50600436106100575760003560e01c806306b88d151461005c5780631ec05fa71461007a5780635ec01e4d146100aa5780638ef3b7aa146100b4578063e60d6f66146100d2575b600080fd5b610064610102565b6040516100719190610284565b60405180910390f35b610094600480360381019061008f91906102f5565b61010b565b6040516100a19190610284565b60405180910390f35b6100b2610133565b005b6100bc61019d565b6040516100c99190610284565b60405180910390f35b6100ec60048036038101906100e79190610335565b6101ac565b6040516100f9919061040d565b60405180910390f35b60008054905090565b6001602052816000526040600020816002811061012757600080fd5b01600091509150505481565b334260005460405160200161014a939291906104c3565b6040516020818303038152906040528051906020012060001c600081905550600560008082825461017b919061052f565b925050819055506001600080828254610194919061058f565b92505081905550565b60006101a7610240565b905090565b6101b4610249565b600160008360018111156101cb576101ca6105c3565b5b60018111156101dd576101dc6105c3565b5b60018111156101ef576101ee6105c3565b5b8152602001908152602001600020600280602002604051908101604052809291908260028015610234576020028201915b815481526020019060010190808311610220575b50505050509050919050565b60006001905090565b6040518060400160405280600290602082028036833780820191505090505090565b6000819050919050565b61027e8161026b565b82525050565b60006020820190506102996000830184610275565b92915050565b600080fd5b600281106102b157600080fd5b50565b6000813590506102c3816102a4565b92915050565b6102d28161026b565b81146102dd57600080fd5b50565b6000813590506102ef816102c9565b92915050565b6000806040838503121561030c5761030b61029f565b5b600061031a858286016102b4565b925050602061032b858286016102e0565b9150509250929050565b60006020828403121561034b5761034a61029f565b5b6000610359848285016102e0565b91505092915050565b600060029050919050565b600081905092915050565b6000819050919050565b61038b8161026b565b82525050565b600061039d8383610382565b60208301905092915050565b6000602082019050919050565b6103bf81610362565b6103c9818461036d565b92506103d482610378565b8060005b838110156104055781516103ec8782610391565b96506103f7836103a9565b9250506001810190506103d8565b505050505050565b600060408201905061042260008301846103b6565b92915050565b600073ffffffffffffffffffffffffffffffffffffffff82169050919050565b600061045382610428565b9050919050565b60008160601b9050919050565b60006104728261045a565b9050919050565b600061048482610467565b9050919050565b61049c61049782610448565b610479565b82525050565b6000819050919050565b6104bd6104b88261026b565b6104a2565b82525050565b60006104cf828661048b565b6014820191506104df82856104ac565b6020820191506104ef82846104ac565b602082019150819050949350505050565b7f4e487b7100000000000000000000000000000000000000000000000000000000600052601260045260246000fd5b600061053a8261026b565b91506105458361026b565b92508261055557610554610500565b5b828206905092915050565b7f4e487b7100000000000000000000000000000000000000000000000000000000600052601160045260246000fd5b600061059a8261026b565b91506105a58361026b565b92508282019050808211156105bd576105bc610560565b5b92915050565b7f4e487b7100000000000000000000000000000000000000000000000000000000600052602160045260246000fdfea264697066735822122080b74ad7679e059f62933258cdf736f1abd634aea21ebcad4ccd18872248b82a64736f6c63430008110033",
  "immutableReferences": {},
  "source": "// SPDX-License-Identifier: MIT\r\npragma solidity ^0.8.0;\r\n\r\nimport \"./HelperFunction.sol\";\r\n\r\ncontract testSyntax is HelperFunction {\r\n    // function for_test(uint256 _i) external view returns (uint256) {\r\n    //     uint256 time;\r\n    //     for (time; time < 10; time++) {\r\n    //         _i++;\r\n    //     }\r\n    //     return _i;\r\n    // }\r\n\r\n    enum Store {\r\n        Backery,\r\n        Butcher\r\n    }\r\n    mapping(Store => uint256[2]) public stores;\r\n\r\n    function getStoreData(uint256 _i)\r\n        external\r\n        view\r\n        returns (uint256[2] memory)\r\n    {\r\n        return stores[Store(_i)];\r\n    }\r\n\r\n    constructor() {\r\n        uint256 i;\r\n        for (i = 0; i < 2; i++) {\r\n            stores[Store(i)][0] = 10;\r\n            stores[Store(i)][1] = 15;\r\n        }\r\n    }\r\n\r\n    // function _random() public returns (uint256) {\r\n    //     return copy();\r\n    // }\r\n\r\n    function _copy() external pure returns (uint256) {\r\n        return copy();\r\n    }\r\n}\r\n",
  "sourcePath": "C:\\Users\\user01\\\\BlockChain\\BCMonopoly\\contracts\\testSyntax.sol",
  "compiler": {
    "name": "solc",
    "version": "0.8.17+commit.8df45f5f.Emscripten.clang"
  },
  "schemaVersion": "3.4.11",
  "updatedAt": "2023-01-05T14:13:18.295Z",
  "networkType": "ethereum",
  "devdoc": {
    "kind": "dev",
    "methods": {},
    "version": 1
  },
  "userdoc": {
    "kind": "user",
    "methods": {},
    "version": 1
  }
}